:1000000048BC032009030000310300003303000053
:100010003503000037030000390300000000000032
:10002000000000000000000000000000E11A0000D5
:100030003D03000000000000011B00004103000020
:100040004D320000430300000D1300004303000085
:10005000430300004303000055490000F937000046
:1000600043030000953B0000ED3B0000D937000042
:100070004303000043030000430300004303000068
:10008000F53C000005190000430300004303000095
:100090004303000043030000430300004303000048
:1000A0004303000043030000453C00009D3C00006A
:1000B00043030000430300000000000000000000B4
:1000C0004303000043030000430300004303000018
:1000D000E93700004303000043030000430300002E
:1000E0001913000043030000430300000000000058
:1000F0000000000043030000000000004303000074
:1001000000000000000000000000000000000000EF
:1001100000000000000000000000000000000000DF
:1001200000000000000000000000000000000000CF
:1001300000000000000000000000000000000000BF
:1001400000000000000000000000000000000000AF
:10015000000000000000000000000000000000009F
:10016000000000000000000000000000000000008F
:10017000000000000000000000000000000000007F
:10018000000000000000000000000000000000006F
:10019000000000000000000000000000000000005F
:1001A000000000000000000000000000000000004F
:1001B000000000000000000000000000000000003F
:1001C000000000000000000000000000000000002F
:1001D000000000000000000000000000000000001F
:1001E000000000000000000000000000000000000F
:1001F00000000000000000000000000000000000FF
:100200000348044B834202D0034B03B118477047A5
:10021000E4010020E4010020000000000548064B36
:100220001B1AD90F01EBA301491002D0034B03B1F4
:1002300018477047E4010020E4010020000000009E
:1002400010B5064C237843B9FFF7DAFF044B13B11E
:100250000448AFF300800123237010BDE4010020A7
:1002600000000000C492000008B5054B1BB1054911
:100270000548AFF30080BDE80840FFF7CFBF00BFDF
:1002800000000000E8010020C4920000A3F5803ABD
:10029000704700BF174B002B08BF134B9D46FFF75D
:1002A000F5FF00218B460F461348144A121A05F039
:1002B0001FFD0E4B002B00D098470D4B002B00D09C
:1002C00098470020002104000D000D48002802D0AE
:1002D0000C48AFF3008005F05DFD2000290003F01D
:1002E00011FF04F047FF00BF0000080000000000FD
:1002F0000000000048BC0320E4010020C89D00204D
:1003000000000000000000000649074A074B9B1A46
:1003100003DD043BC858D050FBDC03F06DFDFFF754
:10032000B9FF0000F892000000000020E401002066
:10033000FEE7FEE7FEE7FEE7FEE7FEE7FEE7FEE795
:10034000FEE7FEE74FF0A0432022C3F80C257047DC
:100350004FF0A0432022C3F808257047C20707D5F5
:100360004FF0A04303212022C3F81417C3F8082537
:10037000830704D54FF0A0430C22C3F874277047BD
:10038000D0B110B4D0E90112521A0468D2B2531E8F
:100390002160DBB252B101680A6803F1FF3C541CD2
:1003A0000C6013705FFA8CF3FF2BF4D1036800200C
:1003B00018715DF8044B70470E20704738B504463D
:1003C000002001F01DF9D4E900311A688A4215D9DC
:1003D000511E19602168A36812F8012C208A0D684B
:1003E000E4685B1B00FB02440A79DBB29A4200D24C
:1003F0000B71002001F00CF9204638BD00240020CC
:1004000001F006F9204638BD38B5054600200C46F7
:1004100001F0F6F82A681368591C1160E9682A8A05
:10042000641AB4FBF2F41C70BDE83840002001F0FF
:10043000EFB800BF10B5044682B00068FFF7BEFFFA
:10044000019020B1606801A900F06CFF10B100209C
:1004500002B010BDE2690199D3680133D360A0698D
:10046000626A00F027FF012002B010BD30B50B78A2
:1004700085B00446042B6AD8DFE803F019394A58DE
:100480000300C2694B681069034450691B1A136169
:100490004968E369029100220320019203928DF8DA
:1004A0000400D3E9002001A9904705B030BDC2691E
:1004B0008B6850691B1A4AD0106918441061E069B2
:1004C0004A6800258DF80450416903930A4402925A
:1004D0004561E16960682A46183100F08FFF002805
:1004E0003BD1E36901A9D3E900209047DDE7C36967
:1004F00093F82630002BD8D1FFF79CFF0028D4D1E9
:10050000E36993F8252012B3012283F82620CCE773
:10051000C369D1E90102CDE9020201218DF804107D
:10052000D3E9002001A9904705B030BD0023CDE9F3
:100530000133C26909798DF80810022003938DF800
:100540000400D2E9003001A9984705B030BD002071
:1005500005B0BDE8304001F02BB8284601F028F87E
:10056000BFE700BF10B58269D36843F307310029A4
:1005700084B004460FDB1B0B49091D4801222031C2
:1005800003F01F0302FA03F340F82130BFF34F8F4B
:10059000BFF36F8FA2695368E169D3F84C050B690B
:1005A000834212D200228DF804204A69C31A0393B1
:1005B00013444B618B691344E26902931061E26951
:1005C00001A9D2E900309847A269D36843F3073202
:1005D000002A4FEA133308DB05485209012103F0D2
:1005E0001F0301FA03F340F8223004B010BD00BF2E
:1005F00000E100E00846FFF7B5BF00BF2DE9F04776
:100600000D46497F072996B000F02C81C169044648
:1006100091F82700002840F02081A169C968C1F83D
:100620000001D1F800110A910A99A169C968C1F8BD
:100630000401D1F8041109910999A169C968C1F8A7
:100640000801D1F8081108910899A169C968C1F891
:100650001001D1F8101107910799A169C968C1F873
:100660001C01D1F81C1106910699A169C968C1F84D
:100670002001D1F8201105910599A169C968C1F837
:100680004401D1F8441104910499A169C968C1F8E1
:100690004C01D1F84C1103910399A169C968C1F8C3
:1006A0005001D1F8501102910299A169C968C1F8AD
:1006B0005801D1F8581101910199E1690A60E26984
:1006C0001061E2699061E269D061E2695061E269BA
:1006D000D060E2695360E3692A691A62E36983F8CA
:1006E00026002B7DE269A3F10103B3FA83F35B09D2
:1006F00082F82530A368002B00F087805C4A92E8DE
:1007000003006A7F0B9001320BAFADF830108DF80B
:100710002E203946226A184602F06CFF0146002856
:1007200040F096802A69A0685209012302F0EEFF8A
:10073000002840F08D80A3681E6806F1080806F1C5
:10074000040A06F5A079E069083002F0B7FD002838
:100750007ED1E069093002F0B1FD002878D1A369AB
:10076000D968E3693246187A01F5847102F0F6FD22
:1007700000286DD1B8F1000F06D0E3694146187A20
:1007800002F012FE002863D1E3695246587A4946C6
:1007900002F0E4FD00285BD1D4E906235168587AC1
:1007A0004C3102F001FE0346002851D16A680B92D9
:1007B0002A680C92AA680D92A069EA680E92C26833
:1007C00002F58872CDE90F23CDE91133AB8AADF87C
:1007D0004C30AB6914936B7F8DF854302D7F254AD4
:1007E0008DF855503946234600F026FA054680BB61
:1007F0002068FFF7C5FD054658BB606800F062FE43
:10080000E369012283F8272023E0E068F0B10422A5
:10081000ADF82C206A7F8DF82E300BAF531C394673
:10082000154A0C948DF82F3003F0BCF8014678B9C6
:1008300001232A69E06803F08DF9E3681E6806F178
:100840000C0806F1100A06F5A0797CE700F0B0FE6E
:100850000325284616B0BDE8F0870825284616B0BF
:10086000BDE8F0870D46284616B0BDE8F08700BF0A
:100870000C8C00006D040000F5050000C36993F8BE
:1008800027206AB310B5002283F82720C3690446E5
:10089000187A02F0B1FDE369187A02F043FDE369CA
:1008A000587A02F0A9FDE369587A02F03BFDA0688E
:1008B00048B102F01FFFA06802F0E4FEA069BDE8A5
:1008C000104000F08DBBE0680028F7D003F030F94D
:1008D000E06803F0E9F8A069BDE8104000F080BBD3
:1008E000704700BF38B504460068FFF767FDE2694E
:1008F000D3680133D3600546002830D0A36843B3E2
:100900001B6801229A60E369187A02F061FD70B9F0
:10091000E369587A02F05CFD90B9E2699561626A18
:10092000A0690023294600F067FC68B938BD0020A3
:1009300000F03EFEE369587A02F04AFD0028ECD050
:10094000002000F035FEE8E7BDE83840002000F068
:100950002FBEE0680028D6D003F0F8F8D3E700F007
:1009600027FECBE7806900F0DFBB00BF38B5044647
:10097000C069C3691344C361E369656AD869A84261
:1009800000D238BD0025121ADD6111442068FFF73E
:100990003BFDE269D368013BD360E369DA68AA42B0
:1009A0000BDB93F82630002BEBD02046FFF742FDFF
:1009B000E369002283F8262038BD284600F0F8FDC0
:1009C000E369EEE7704700BF2DE9F041C368D3F853
:1009D00024218CB00446CAB10022C3F82421D3F8E4
:1009E00024110191CDE9092203238DF82430C36835
:1009F0000B92019AD3F88024C3F8802403688DF801
:100A000028205A6A586B09A99047E368D3F84C210B
:100A100092B10022C3F84C21D3F84C1123680B92F9
:100A2000CDE9092201208DF8240002915A6A586B01
:100A3000029B09A99047E368D3F81021002A3ED011
:100A40000022C3F81021D3F81031626803932368A1
:100A50000399D2F840759E6AD2F844859F62DA6A9B
:100A60002368BE1BC3F82C8073D0236800211A6B47
:100A70008DF818109869B24228BF3246CDE90702B6
:100A8000B51ADA699A612368D96123681A6A5AB17A
:100A9000DA61236819622268E368116BD269C3F8CE
:100AA0003425C3F8381523685A6A586B06A990474D
:100AB0002368002D52D11A6BB2424DD0E368D3F8AF
:100AC0005821AAB10021C3F858112268D3F858015F
:100AD000049002258DF82450D3680A9313690B9370
:100AE000D160236809A95A6A586B049B9047E36850
:100AF000D3F8202152B30020C3F82001D3F82011ED
:100B00002268E36805910599D3F84C1553690B44A5
:100B100053612368D3E90421914231D0521AB2F5CE
:100B2000803F3AD31A8FDB681144E2680B44D2F855
:100B30005011C2F85001D2F8502121680992E268A0
:100B4000098F0998C2F84435C2F848150CB0BDE8C1
:100B5000F081424589D1B1E7B845AFD10A95042269
:100B6000002509950B958DF824205A6A586B09A920
:100B700090472368DA699A612368DD61E3689EE73C
:100B8000E368C3F85801D3F858110691E368069951
:100B90000122DA600CB0BDE8F081187A1328D5D8AC
:100BA0000CB0BDE8F04102F027BC00BFF8B5064626
:100BB00005680024142702E00134092C0CD0285DBC
:100BC0001328F9D802F018FC285D02F0ABFB2F5572
:100BD0000134092C3568F2D1687A052808D9A87A39
:100BE000052800D9F8BD02F04DFC0623AB72F8BD14
:100BF00002F048FC06236B723568F0E7F8B505464D
:100C00000C4617461E4602F059FB48B92146287883
:100C10003A4602F0A3FB044658B926B92046F8BD6F
:100C200004242046F8BD2878314602F0BDFB002898
:100C3000F4D003242046F8BD2DE9F04704460068AF
:100C40000D4690F83C1084B0002940F00C81E66815
:100C50004262226891612268D16122681162226831
:100C6000D1602268A14953632368FF2283F83A20A8
:100C7000E3689F4A5B1A18BF012342F823402A68A1
:100C80001F2A86BF02F01F029A494FF0A04101239C
:100C90009340C1F808352B681F2B86BF03F01F0354
:100CA000944A4FF0A04203F5E073032142F8231069
:100CB00095F829206B68002A14BF0C2100211F2BF6
:100CC00086BF03F01F038B4A4FF0A04203F5E07389
:100CD00042F82310E3686A6AC3F8242595F82130A6
:100CE00095F82010E2680B43C2F86C35E368D5E94B
:100CF0000012C3F80C15C3F8142595F82030012B09
:100D000040F09480AB685A1C0BD01F2B86BF03F0B9
:100D10001F0378494FF0A04103F5E0730C2241F81E
:100D20002320EB68013340F0A38002A9E368AA689E
:100D30004FF0FF30C3F80805C3F81025E3686E488C
:100D4000C3F80403320B46F30736002E95F828301B
:100D5000C0F2828002F01F00720906F1604606F5BB
:100D600061465B019200DBB202F1604286F800331B
:100D700002F5614201238340C2F880311360E368C9
:100D80000822C3F800255D4B5D4A0020CDE9023002
:100D9000201D02F007FE002859D1142223681A549E
:100DA00001300928FAD1226806235372226893720F
:100DB0002668E768D4F80480301D02F07FFA002826
:100DC0003DD1307908F1080207F5847102F0C6FAC6
:100DD000002834D1D4E90003E2684033053002F53D
:100DE0008871FFF70BFF074648BB6B691BB1EB69C6
:100DF000002B40F08B80AE695EB12068E168B046A0
:100E00000026013001F5A67133464246FFF7F6FE93
:100E1000A8B9296961B9E868431C54D12368012243
:100E2000384683F83C2004B0BDE8F08702A985E786
:100E3000E26820683346FFF7E1FE0028EBD0204649
:100E4000FFF7B4FE0327384604B0BDE8F087032758
:100E5000384604B0BDE8F0872A4802F00F025B0173
:100E6000DBB283548BE70827384604B0BDE8F0872F
:100E7000254B1B68ADF808301B0C8DF80A3003F0C9
:100E800027FC30F008030746DDD102A9E86801918C
:100E900003F074FC0028DAD1E86803F02DFDEB685C
:100EA00001991F2B88BF03F01F0303F5E0738CBF6C
:100EB00010484FF0A040032240F823202368EA683E
:100EC00083F83A2032E7D4E9006803F027FD0546AD
:100ED000F01D02F0F3F90028B1D1F0792A4608F5A7
:100EE000A47102F03BFA002898D0A8E70020004047
:100EF0000002002000030050100348000001030618
:100F0000C509000014ED00E0148C00006268E1687F
:100F10002068403201F588710630FFF76FFE002827
:100F20008DD1266806F1090096F8058002F078FA5E
:100F3000002884D10120717A00FA08F002F0DEFA6C
:100F400000287FF47CAF707A02F0C0FA00287FF4AA
:100F500076AF96F80990D4F800804FEAC90909F1F4
:100F6000804608F10A0098F806A006F5F83602F067
:100F700057FA00287FF463AF012098F80A1000FAAE
:100F80000AF002F0BBFA00287FF459AF98F80AA0E3
:100F90006368E2682068DFF8448069694FEACA0A3A
:100FA000443304320230D044FFF728FE00287FF497
:100FB00046AF2068094A69690AF1804303F5F833AE
:100FC00003304A44FFF71AFE00287FF438AF206848
:100FD000E168AB69013001F5A67116E704F0014044
:100FE000026892F83C3003B9704730B5C3680446D4
:100FF00043F30731002081428BB082F83C004FEA76
:1010000013330DDB490947480122203103F01F0348
:1010100002FA03F340F82130BFF34F8FBFF36F8F15
:101020002368002501E0082D09D0585D132805F13B
:101030000105F8D802F0E0F9082D2368F5D1187AF7
:10104000132801D802F0D8F9E3684FF0FF32C3F853
:101050000823E3680022C3F85821D3F85811E36845
:1010600003910399C3F84421D3F84431E268029311
:1010700001230299D360E26853602068C2688169E5
:1010800022B1E368D3F85831002BF9D021B1E368DD
:10109000D3F84431002BF3D00023C360226893615E
:1010A000E268C2F80035E268C2F85031D2F8501157
:1010B000E26809910999C2F85831D2F85811E268EA
:1010C00008910899C2F82031D2F82011E2680791FE
:1010D0000799C2F81031D2F81011E268069106990A
:1010E000C2F84C31D2F84C11E26805910599C2F86A
:1010F0004431D2F844310493201D049B019002F046
:1011000017FD019802F0D0FC236893F83A00FF28FD
:1011100001D003F0B3FB20460BB0BDE83040FFF731
:1011200045BD00BF00E100E030B503680446D86863
:1011300083B000285AD1D96023681A612368B2F5B8
:10114000803F58613FD32B4D02F57F43FE33A5FB13
:1011500003532568DB0BB2FBF3F32B8723681B8F4C
:10116000B2FBF3F503FB152213449DB2E368C3F809
:101170004415C3F84855E368C3F85001D3F850311B
:101180000093E368009901229A60E268D2F8503136
:10119000002BFBD00023C2F850312368D2F8502135
:1011A000187A01921328019A02D802F011F92368E3
:1011B000DA68E1681C8F2A440020C1F84425C1F890
:1011C000484503B030BD23681887E368C3F8441569
:1011D000C3F84825E368C3F85001D3F850110091D3
:1011E000E368009901229A6003B030BD112003B07A
:1011F00030BD00BF018000802DE9F04104681E462B
:10120000A36982B0002B51D105461746226331B144
:1012100003689961C368C3F83415C3F8382505F12C
:101220000408404602F076FC404602F08FFC2B6832
:1012300000249C622B68DC62EB68C3F81041D3F891
:1012400010310193019BEB68C3F84C41D3F84C314A
:101250000093009B296801E0082C09D0085D132841
:1012600004F10104F8D802F0B3F8082C2968F5D18C
:1012700091F83A00FF280BD11EB1002002B0BDE862
:10128000F081EB68012230461A6002B0BDE8F081BF
:1012900003F052FB0346012119603A1F4046002328
:1012A000022102F057FC002EE7D1EAE7112002B03C
:1012B000BDE8F08110B503680446D869F0B1196241
:1012C000236893F83A30FF2B00D110BD204600234D
:1012D00050F8041FD1F8401501EB4202043A0221F4
:1012E00002F038FC236893F83B20002AEDD193F8F4
:1012F0003A0003F021FB0123036010BDD961E368CC
:10130000C3F83415C3F83825DAE700BF014B186875
:10131000FFF75ABB00020020014B5868FFF754BB8F
:101320000002002070B5044600200D4600F068F968
:101330002368A16818685A688A4234BF01320022C3
:10134000904212D058685A6891420BD800225A60D5
:10135000E268531E072B19D8DFE803F0433E183923
:101360001818183101325A60F2E7227C002A3FD166
:1013700058685E68B14238D85A602268A16813681C
:101380008B4234BF013300231360E1E763682946D1
:1013900000FB023004F074FD2268136851688B4230
:1013A00082BFA06801300918CB1A9168994238BFF2
:1013B00093600024002000F02BF9204670BD636884
:1013C00095ED007B03EBC00383ED007BE4E76368EE
:1013D0002A6843F82020DFE763682A8823F8102072
:1013E000DAE763682A781A54D6E701365E60C4E704
:1013F0000424002000F00CF9204670BD2DE9F041D6
:10140000044600200F46904600F0FAF823681E6854
:101410005D68AE4214D01968B8F1000F06D11A68A1
:10142000A068824234BF013242461A60E268531E0D
:10143000072B0CD8DFE803F03C180B230B0B0B2E0B
:101440000524002000F0E4F82046BDE8F081636840
:10145000384601FB023104F013FD0024002000F0A7
:10146000D7F82046BDE8F081636833F811303B803F
:101470000024002000F0CCF82046BDE8F08163682D
:1014800053F821303B600024002000F0C1F82046D2
:10149000BDE8F081636803EBC103D3E900230024B6
:1014A000C7E90023002000F0B3F82046BDE8F08132
:1014B00063685B5C3B700024002000F0A9F82046C4
:1014C000BDE8F08110B50446002000F099F82068CE
:1014D0000C22002104F00CFCBDE81040002000F0BC
:1014E00097B800BF10B4054C2060054C054821603A
:1014F000054902600B605DF8044B7047080200204C
:1015000014020020100200200C0200202DE9F843F4
:101510000C46164601F086FB012818D1002E13DD7B
:101520001E4DDFF87C9004EB06080027D9F8001068
:101530000B78002BFCD00F70012221462868144440
:10154000FFF710FA4445F1D13046BDE8F883DFF8E3
:1015500054904FF0FF31D9F8000000F045FD002E07
:1015600011DDDFF844800D4DA7194FF0FF31D8F899
:10157000000000F039FD0122214628681444FFF7DD
:10158000F1F9A742F1D10023D9F800001A46194613
:1015900000F0A2FB3046BDE8F88300BF080200203F
:1015A0000C020020100200201402002001207047CD
:1015B00000B585B00346002101AA44F20100CDE93F
:1015C0000111039300F004F805B05DF804FB00BFBF
:1015D00072B6094BD3F8F030DB0700D500BEBFF37D
:1015E0004F8F0549054BCA6802F4E0621343CB6094
:1015F000BFF34F8F00BFFDE700ED00E00400FA05E8
:1016000072B6024A13680133136070471802002053
:10161000034A1368013B136003B962B6704700BF09
:101620001802002000F108034FF0FF310022C0E94A
:101630000131C0E903330260704700BF002303613A
:10164000704700BF43684B609A688A605160996038
:101650000861036801330360704700BF30B40D6850
:101660006B1C10D000F108031C465B681A68AA4284
:10167000FAD94B6099608C6061600861036801333E
:1016800030BC0360704704696368F2E7D0E9011277
:1016900003698A60416851605A68824204BF826867
:1016A0005A60002202611A68013A1A60186870478D
:1016B000164B1A461B688342FBD3516802EB010CA0
:1016C00060451BD0416800EB010C634505D08242A8
:1016D000036018BF10607047104610B40C4C2468AB
:1016E000A34204D05B680B44436013681B6803602B
:1016F000824200D010605DF8044B7047406801449E
:10170000501883425160E7D0136070472C8200204C
:101710001C0200202DE9F041044600F0FFFE37488E
:101720000368002B3FD0364B1E68264235D1002C73
:1017300033D004F1080263071CBF22F0070208320D
:101740005AB3304FD7F80080904526D32E490C6805
:1017500003E0236823B121461C4663689342F8D313
:101760000368A34219D023680D680B606368991A57
:10177000102905F1080532D824490868A8EB0302AE
:1017800082423A6038BF0A6033430022C4E9002332
:1017900000F084FF2846BDE8F081002500F07EFFC0
:1017A0002846BDE8F0811A4A51071FD102F50043CF
:1017B0001146083B23F00703144D134E104F3160C0
:1017C0009A1A2A600F4D03602A60002575604FF059
:1017D0000046C3E900553E60C1E90032A5E7A01804
:1017E00041606260FFF764FF6368C5E7D11D21F0C7
:1017F000070102F500430A46DBE700BF1C02002098
:1018000020820020248200202C82002028820020B8
:101810002002002040B1114A50F8043C12681342E3
:1018200002D050F8081C01B1704700B523EA02034A
:1018300083B040F8043C019000F070FE084A019823
:10184000116850F8043C08380B441360FFF730FF70
:1018500003B05DF804EB00F021BF00BF2082002040
:1018600024820020402383F31188FEE710B44FF058
:101870008073064C40F8043C6FF0020340E90341DA
:1018800040E9093244385DF8044B704765180000A0
:101890000F4C08B5E02384F8223000F075F80D4BAA
:1018A00000221A60D4F888300B4A43F47003C4F85D
:1018B0008830536B43F040435363236943F0100374
:1018C000236100F0FFF8402383F31188FEE700BF97
:1018D00000ED00E03482002000EF00E0402383F3BD
:1018E0001188024A13680133136070473482002064
:1018F000034A1368013B13600BB983F311887047E7
:101900003482002070B51E4B0022C3F8402182B003
:10191000D3F8401101910199EFF31186402181F331
:101920001188D3F80445C3F80021D3F8003100939F
:10193000009B00F0FBFD201A20F07F4323F0010301
:1019400020F07F459BB96C1E6DB1002500F0FCFDB9
:1019500023460543013C002BF8D125B1094B4FF03C
:1019600080525A6040BF86F3118802B070BD01F00A
:1019700059F90228E7D000F0E7FD0546EDE700BF82
:101980000010014000ED00E010B5002001F01EFC49
:10199000094B0A4901221F24C3F808450220C3F855
:1019A00004239A601A60E022C3F8440381F81123EB
:1019B0004FF400330B6010BD0010014000E100E067
:1019C00070B5064684B072B63B4CD4F8045501F0AD
:1019D0000DF9002852D0394BB34228BF33469C46FC
:1019E0002B4423F07F430122C4F80823C4F8403578
:1019F0000023C4F84031D4F840310193019B4FF4E7
:101A00008033C4F80433BFF34F8F002E39D02C4AF3
:101A10004024F1EE103A23F09F03E1EE103AF1EE8C
:101A2000103AC2F8844120BFD2F80031D2F8041134
:101A30000B43EED0204B4FF48031C3F80813002144
:101A4000C3F84011D3F8400103900398C3F8001184
:101A5000D3F80011029101210298C3F80413D3F8BE
:101A60000405401B20F07F4060454FF4003328BF41
:101A70006046C2F8803108B100F05EFD62B604B085
:101A800070BDC4F80833C4F84061D4F84031039302
:101A9000039BC4F80061D4F800310293084B02990B
:101AA000C4F804234FF40031D4F80425C3F880119E
:101AB00062B604B070BD00BF00100140FDFFFF0022
:101AC00000E100E00548006880F3088862B661B66E
:101AD000BFF34F8FBFF36F8F00DF00BF0000000028
:101AE000064B19680868B0E8F04F80F30988BFF327
:101AF0006F8F4FF0000080F31188704748820020FC
:101B0000EFF30980BFF36F8F144B1A681EF0100FAC
:101B100008BF20ED108A20E9F04F10604DF8043D19
:101B20004FF0400080F31188BFF34F8FBFF36F8FEA
:101B300000F0F2FE4FF0000080F3118808BC196835
:101B40000868B0E8F04F1EF0100F08BFB0EC108A24
:101B500080F30988BFF36F8F704700BF4882002071
:101B600070B50446006CA66B20B925684DB30136EC
:101B7000A66370BD154602467DB9A06804F080F9E1
:101B8000A368226C13446268A360934224BF236855
:101B9000A3600136A663284670BDE06804F070F9C2
:101BA000226CE36851429B1A2268E360934202D29E
:101BB00063680B44E360022D08D00136A663002061
:101BC00070BD606801F096F86560D0E7012E38BFFF
:101BD00001260020CCE700BF70B50546FFF77EFE6A
:101BE00095F845305CB2002C14DD05F1240603E0C5
:101BF000631EDAB25CB26AB16B6A304653B100F070
:101C00005DFF0028F4D000F0EBFF631EDAB25CB297
:101C1000002AF1D1FF2385F84530FFF769FEFFF771
:101C20005DFE95F844305CB2002C14DD05F1100621
:101C300003E0631EDAB25CB26AB12B69304653B17D
:101C400000F03CFF0028F4D000F0CAFF631EDAB2B7
:101C50005CB2002AF1D1FF2385F84430BDE8704022
:101C6000FFF746BE70B506460D4651B100FB01F0C8
:101C70004830FFF74FFD044658B300F148030360B6
:101C800005E04820FFF746FD044610B32460C4E990
:101C90000F65FFF723FED4E90F23216803FB02F24F
:101CA000D31A0A440B4462600020FF22A063C4E9F7
:101CB000021384F8442004F1100084F84520FFF753
:101CC000B1FC04F12400FFF7ADFCFFF711FE204644
:101CD00070BD0024204670BD2DE9F04784B0002679
:101CE000DFF808A10192044689461F46B04607E086
:101CF000FFF7FEFD2046FFF76FFF00F0CFFC012647
:101D0000FFF7ECFDA36BE06B834242D3022F40D080
:101D1000019D002D5BD0002E37D0FFF7E9FD00F0CC
:101D2000FDFBFFF7DBFD94F84430FF2B08BF84F880
:101D3000448094F84530FF2B08BF84F84580FFF7B6
:101D4000D7FD01A902A800F017FF002845D1FFF731
:101D5000C5FDA26BE36B9A42CAD1FFF7C9FD019999
:101D600004F1100000F084FE2046FFF735FF00F07C
:101D700095FC0028C3D14FF08053CAF8043040BF0F
:101D8000BFF34F8FBFF36F8FB9E702A800F0E8FEF3
:101D9000C3E73A4649462046FFF7E2FE636A33B995
:101DA00058B9FFF7A5FD012004B0BDE8F08704F1A4
:101DB000240000F083FE0028F3D00C4B4FF080523B
:101DC0005A6040BFBFF34F8FBFF36F8FE9E7FFF754
:101DD0008FFD284604B0BDE8F0872046FFF7FCFEE3
:101DE00000F05CFC002004B0BDE8F08700ED00E0EE
:101DF000F8B504461646EFF31187402282F31188A6
:101E0000806BE26B904205D3022B03D0002087F356
:101E10001188F8BD94F845501A466DB22046FFF778
:101E20009FFE6B1C07D001356DB284F84550012030
:101E300087F31188F8BD636A002BF8D004F1240001
:101E400000F03CFE0028F2D0002EF0D001203060DF
:101E5000DDE700BF10B582B0EFF31184402383F3B8
:101E60001188836BC26B9A420FD990F845200133D9
:101E7000FF2A836353B20DD001335BB280F8453043
:101E8000012084F3118802B010BD002084F3118872
:101E900002B010BD436A002BF2D02430019100F053
:101EA0000DFE0028ECD001990029E9D0012008603E
:101EB000ECE700BF2DE9F043044685B00F460192E0
:101EC000FFF70CFDA56B002D5AD1019B002B38D0DC
:101ED00002A800F045FEDFF80C912E4604F124081C
:101EE000FFF706FD00F01AFBFFF7F8FC94F844300A
:101EF000FF2B08BF84F8446094F84530FF2B08BFDF
:101F000084F84560FFF7F4FC01A902A800F034FE54
:101F1000E8B9FFF7E3FCA36B33BBFFF7E9FC0199DA
:101F2000404600F0A5FD2046FFF756FE00F0B6FB48
:101F300000283CD0FFF7D2FCA56B0DBB019B002B0A
:101F4000CED1FFF7D5FC002005B0BDE8F0832046D8
:101F5000FFF742FE00F0A2FBFFF7C0FCA36B002BD3
:101F6000EFD0FFF7C5FCE5E7FFF7C2FC2046FFF71F
:101F700033FE00F093FBFFF7B1FCA56B002DDDD025
:101F8000226C52B1E168636811449942E16024BF58
:101F90002168E160384603F073FF013DA5632369C2
:101FA0007BB9FFF7A5FC012005B0BDE8F0834FF039
:101FB0008053C9F8043040BFBFF34F8FBFF36F8F1A
:101FC000B8E704F1100000F079FD0028E9D0054BD6
:101FD0004FF080525A6040BFBFF34F8FBFF36F8FF7
:101FE000DFE700BF00ED00E02DE9F043044685B0D7
:101FF00000270191FFF772FCA36BDFF850913E467A
:10200000B846002B42D1019D002D7AD0002E59D028
:10201000FFF76EFC00F082FAFFF760FC94F84430A2
:10202000FF2B08BF84F8448094F84530FF2B08BF8D
:1020300084F84580FFF75CFC01A902A800F09CFD34
:10204000002832D1FFF74AFCA36B002B3ED1FFF7EB
:102050004FFC2368002B5BD0019904F1240000F0B1
:1020600007FD2046FFF7B8FD00F018FB40B94FF020
:102070008053C9F8043040BFBFF34F8FBFF36F8F59
:102080000126FFF72BFCA36B002BBCD02268013B81
:10209000A363002A55D02369002B42D1FFF728FC07
:1020A0000127384605B0BDE8F0832046FFF794FDD0
:1020B00000F0F4FAFFF712FCA36B83B1FFF718FCF2
:1020C0000126DEE702A800F04BFDA1E7FFF710FCB8
:1020D0002046FFF781FD012600F0E0FAD1E7FFF787
:1020E00007FC1FB9384605B0BDE8F083FFF7F6FBE3
:1020F000616A19B1236B1968C1F10501606800F0CC
:102100003DFEFFF7F5FB0027384605B0BDE8F0833C
:10211000FFF7E4FB606800F095FD0746FFF7E8FB7A
:102120009AE704F1100000F0C9FC0028B6D0074B74
:102130004FF080525A6040BFBFF34F8FBFF36F8F95
:10214000ACE700F069FE6060A5E700BF00ED00E0CD
:10215000064B1A681AB19A6802B17047012203EB64
:10216000C20C43F83210CCF80400F6E738820020A5
:1021700070B504460E461546FFF7B0FB94F84430A0
:10218000FF2B04BF002384F8443094F84530FF2B24
:1021900004BF002384F84530FFF7AAFBA36B23B1EB
:1021A0002046BDE87040FFF717BD04F124002A4621
:1021B000314600F06DFC2046BDE87040FFF70CBDD5
:1021C000F8B51B4B1B4E1C6833680546181D0F469F
:1021D000FFF75CFA40B933681749DB6A01229A407D
:1021E0000B6823EA02030B606B1C17D03368641979
:1021F0005C6007D3114B18683168BDE8F8400431C2
:10220000FFF72CBA0E4B186831680431FFF726FA35
:102210000C4B1A68A24288BF1C60F8BD002FE5D0A5
:1022200031680948BDE8F8400431FFF70BBA00BF38
:102230004483002048820020CC820020508200206D
:102240004C820020FC8200201C8300202DE9F84FE6
:102250009500804628460E469946FFF75BFA00280F
:102260007DD007464820FFF755FA0446002800F0C5
:1022700083800763A52138462A4603F039FDD4F848
:1022800030A0731E04F13301033613F8012F01F857
:10229000012F0AB1B342F8D10A9E042E28BF0426AA
:1022A0004FF0000B271DE662A663384684F837B06E
:1022B000C4F83CB0FFF7C2F9043D04F11800FFF781
:1022C000BDF9C6F105060AEB0500C4F840B0A661E9
:1022D00084F844B0246164624A46414620F0070015
:1022E000FFF7C4FA0B9B206003B11C60FFF7F6FAFE
:1022F0003E4A3F4E1368013313603368002B44D0CD
:10230000DFF81481D8F800306BB3E06ADFF80C9185
:10231000384D394A2B68013339462B60176801253F
:1023200005FA00F300EB80003B4309EB80001360EB
:10233000FFF788F9FFF7DCFAD8F8003013B33268FA
:10234000E36AD26A9A421DD22C4B4FF080525A60F7
:1023500040BFBFF34F8FBFF36F8F284601E04FF0B0
:10236000FF30BDE8F88F3368E06ADB6ADFF8AC90D5
:10237000834298BF3460CBE73846FFF74BFA4FF003
:10238000FF30EEE72846BDE8F88F34601368012B74
:1023900005D0E06ADFF88490DFF87C80B8E7DFF8EA
:1023A0007C904D4609F1640828461435FFF73AF948
:1023B000A845F9D1DFF86880114D4046FFF732F9A2
:1023C0002846FFF72FF90F48FFF72CF90E48FFF7C3
:1023D00029F90E48FFF726F90D4BE06AC3F8008093
:1023E0000C4BDFF834801D6092E700BFB8820020FC
:1023F00048820020C8820020CC82002000ED00E04E
:10240000E482002004830020308300201C8300200D
:102410004C8200205082002018830020548200202B
:10242000D082002098B1F0B51E4D2B68834283B056
:1024300004460AD0FFF752FA1B4B62699A4207D052
:1024400003B0BDE8F040FFF753BA03B0F0BD7047EA
:10245000A36A164A9342F3D0002BF1D1211D0846FE
:102460000191FFF713F91248E36A0768114E0199C9
:1024700001229A403A4303EB8303026006EB830098
:10248000FFF7E0F82B68E26ADB6A9A42D8D30A4B7E
:102490004FF080525A6040BFBFF34F8FBFF36F8F32
:1024A000CEE700BF488200201C8300200483002068
:1024B000CC8200205482002000ED00E030B5114BAA
:1024C0001149124883B00024CDE900433C22234641
:1024D000FFF7BCFE012801D003B030BD00F0D6FCF0
:1024E0000128F9D1402383F311880949094A0A4B8D
:1024F0004FF0FF350D6010601C6003B0BDE8304048
:10250000FFF7C6B9F8820020188C0000ED27000004
:10251000FC8200201883002044830020024A1368B4
:1025200001331360704700BFC4820020014B18685C
:10253000704700BF44830020024A136818441060AB
:10254000704700BF448300202DE9F04F484B1B68C3
:1025500083B0002B4CD1474B1D6801351D60002D09
:1025600065D0454B0193019B1B68AB424ED8434E4F
:10257000DFF820813368DFF820911C68002C6AD0D6
:102580003F4F00244FF0010A24E00091FFF77EF84E
:10259000DBF8282000990BF1180012B1FFF776F84C
:1025A0000099DBF82C003B680AFA00F200EB80008F
:1025B0001A4308EB80003A60FFF744F8D9F800208E
:1025C0003068DBF82C10D26A0368914228BF0124DE
:1025D000002B40D03368DB68D3F80CB0DBF8042064
:1025E0000BF1040195420846CFD2019B1A6012E01C
:1025F000244A1368013300241360234B1B68002B0B
:102600000CBF2046012003B0BDE8F08FDFF88480C6
:10261000DFF884900024D9F80030DB6A03EB8303F1
:102620009B0058F80330022B28BF0124E5E7134B29
:10263000164A186811681960154910600A68013255
:102640000A601A6812685AB90B4B01931A464FF088
:10265000FF33136087E7019A4FF0FF331360DAE727
:102660001B68054ADB680192DB685B6813607AE7E8
:10267000C482002044830020FC8200204C82002081
:10268000CC820020C082002048830020508200209D
:102690000083002054820020488200202DE9F04F62
:1026A00083B0FFF71BF9384B1A68013A1A601B68B0
:1026B000002B58D1354B1B68002B54D0DFF8E8A015
:1026C000DAF80030002B5BD0314DDFF8E080314F7D
:1026D000DFF8DC900126DAF80C30DC6804F1040B3A
:1026E00004F11800FEF7D2FF5846FEF7CFFFE06A6C
:1026F0002A6806FA00F300EB80001343594608EB02
:1027000080002B60FEF79EFF3B68E26ADB6A9A421C
:1027100028BFC9F80060DAF80030002BDBD11E4B6F
:102720001A6812683AB31A681C4BD268D2685268A9
:102730001A601B4E346844B10125FFF705FF08B14C
:10274000C9F80050013CF8D13460D9F8003053B1D9
:10275000144B4FF080525A6040BFBFF34F8FBFF30E
:102760006F8F012000E000200190FFF7C1F8019871
:1027700003B0BDE8F08F094B4FF0FF321A60D8E785
:10278000DFF82C90D5E700BFC4820020B88200207B
:10279000CC820020488200204C820020FC82002055
:1027A000C082002000ED00E004830020548200205D
:1027B0004883002008B548B90A4B4FF080525A6050
:1027C00040BFBFF34F8FBFF36F8F08BD064A13683A
:1027D000002101331360FFF7F3FCFFF75FFF0028D0
:1027E000EAD008BD00ED00E0C48200202DE9F84FDA
:1027F0003D4C3E4E3E4DDFF81081DFF81091DFF882
:1028000010B1DFF810A114E0FFF768F8F368DF6893
:10281000381DFEF73BFF2B68013B2B602368013B13
:102820002360FFF765F8386BFEF7F4FF3846FEF7D4
:10283000F1FF2368002BE7D12E4B1B68012B08D931
:102840004FF08053CBF8043040BFBFF34F8FBFF33E
:102850006F8F01F07FFDD8F80030012BD9F80030E0
:10286000DB6A0AD90BB9234B1B68DAF80035002B59
:10287000DFD1214BD3F80035DBE7002BF5D11D4B21
:102880001B68012BF1D81D4B1A681D4B1968DAF82B
:102890000035002BCDD1184BD3F80035002BC8D113
:1028A000521A012AC5D9174A136801331360D8F8A0
:1028B0000030012BD9F80030DB6A05D90BB90D4B7C
:1028C0001B68FFF7EBFEB4E7002BFAD1094B1B683E
:1028D000012BF6D8094B1868094B1B68C01A012850
:1028E000EFD9FFF76DF8ECE7BC82002030830020C1
:1028F000B88200205482002000800240FC82002028
:1029000044830020C4820020CC8200204882002022
:1029100000ED00E000200040154B1B681BB1154B7B
:1029200001221A6070471349134A0B601368C3B140
:10293000B3FA83F3C3F11F0303EB830189009A0009
:1029400008310E48134400EB830308445A68526868
:102950005A60824204BF52685A60094BD2681A60BA
:1029600070476FF00B014FF0FF336FF00302E8E7A1
:10297000C482002048830020CC82002054820020A2
:102980004882002070B50446304EFEF7A7FF002CA9
:1029900047D0251D2846FEF779FE30B9E26A2C495A
:1029A00002EB82039B00CB581BB3A36A1BB104F15B
:1029B0001800FEF76BFE29462648274DFEF742FE1B
:1029C00094F84430012B04BF002384F84430FEF710
:1029D0008FFF2B68B3B93368A34200D070BD2B685A
:1029E00033BB1C491D4A0968126891422AD13360E1
:1029F00070BD1B49012303FA02F20B6823EA0203AC
:102A00000B60D2E7FEF76AFF164B1A68126852B1E4
:102A10001A68154BD268D26852681A60FEF768FFD0
:102A2000D9E73468B5E7104B4FF0FF321A60F5E78D
:102A30000E4B4FF080525A6040BFBFF34F8FBFF331
:102A40006F8F70BDBDE87040FFF766BF4882002001
:102A5000548200201C83002018830020B8820020AC
:102A6000CC8200204C820020FC82002000ED00E09F
:102A700010B5064B1B680C4603F11801FEF7EEFD7E
:102A800020460121BDE81040FFF79ABB4882002094
:102A900038B5094B1B6814460D4603F11801FEF7C3
:102AA000D1FD002C21460CBF28464FF0FF30BDE879
:102AB0003840FFF785BB00BF4882002070B5C3686F
:102AC000DC6804F1180582B02846FEF7DFFD1C4BD8
:102AD0001B6843BB211D1B4D01910846FEF7D6FD27
:102AE000E36A2E681848019901229A4003EB830398
:102AF000324300EB83002A60FEF7A4FD134BE26A29
:102B00001B68DB6A9A4282BF114B01201860114B8F
:102B10001A68126898BF002052B90F4B4FF0FF326D
:102B20001A6002B070BD0D482946FEF78BFDE5E73F
:102B30001A68094BD268D26852681A6002B070BD38
:102B4000C4820020CC8200205482002048820020D1
:102B5000488300204C820020FC8200200483002057
:102B6000034A044B12681B68C0E90023704700BF8A
:102B70000083002044830020F0B50D4683B0044656
:102B8000FEF7ACFE2B68144A591C10681DD0DFF804
:102B90004CC0D4E90061DCF80070BE4208D081422C
:102BA00006D801200190FEF7A3FE019803B0F0BD06
:102BB000471ABB420BD91B1A0B44DCF800101268F1
:102BC0002B600020C4E90012ECE70020EAE70023B4
:102BD0002B600120E6E700BF448300200083002033
:102BE000014B01221A60704748830020094B186886
:102BF00018B9094B1B6813B1704700207047074A8A
:102C0000074B10681B68013B984214BF012002204B
:102C1000704700BF04830020488300201C830020ED
:102C2000B8820020054B1B6833B1054B1868B0FA19
:102C300080F0400940007047012070471883002051
:102C4000C482002070B5044682B0C8B1264DC36A64
:102C50002A68D26A934215D28269002A04DB2A6864
:102C6000D26AC2F105028261204E626903EB8303DE
:102C700006EB83039A420ED02B68DB6AE3620120E5
:102C800002B070BD2B68806BDB6A98422CBF0020BD
:102C9000012002B070BD211D08460191FEF7F6FC2F
:102CA000019970B9E06A124A00EB80039B00F35867
:102CB00043B9012303FA00F0136823EA0003136009
:102CC00000E00B4A2B681568D86AE062012404FA18
:102CD00000F300EB80002B4306EB80001360FEF74F
:102CE000B1FC2046CCE700BF48820020548200207F
:102CF000CC82002068B1F0B5C36BC16A826B013B26
:102D0000914283B00446C36300D023B1002003B0D6
:102D1000F0BD00207047011D08460191FEF7B6FC8A
:102D20000199A8B11348144EA36B3768E3620125DB
:102D3000C3F10502A26105FA03F203EB83033A43F0
:102D400000EB83003260FEF77DFC284603B0F0BD47
:102D5000E26A0848084E02EB82039B00C358002B2E
:102D6000E2D1012303FA02F2336823EA020333605B
:102D7000DAE700BF54820020CC82002070B170B529
:102D8000826BC36A914238BF11468B4282B00446BF
:102D900002D0C26B012A02D002B070BD70478269B6
:102DA0001B4DC162002A03EB83034269A8BFC1F136
:102DB000050105EB8303A8BF81619A42ECD1011D97
:102DC00008460191FEF762FC0199E36A70B10122A5
:102DD000104C9A4098001844236805EB8000134378
:102DE000236002B0BDE87040FEF72CBC03EB830209
:102DF00092009800AA581AB10122064C9A40EAE7BC
:102E0000044C012226689A4026EA02062660E2E780
:102E100054820020CC820020044B1A681AB1196831
:102E2000CA6B0132CA631868704700BF488200202D
:102E3000F8B5104CFEF752FD25681DB1BDE8F8400D
:102E4000FEF756BD0C4F0D4E3846FEF7EBFB3046F5
:102E5000FEF7E8FB0A4B1F600A4B2A461021202090
:102E60001E60FEF7FFFE20600028E7D00649FFF74E
:102E70006FF9E3E7808300205483002068830020FB
:102E80004C83002050830020208C000000B583B0CC
:102E9000FFF7CEFF084B186850B1084A08490948A7
:102EA0000223CDE9003200234FF48062FFF7CEF910
:102EB00003B05DF804FB00BF808300208483002002
:102EC000288C0000C92F00002DE9F041074628207A
:102ED000884616461D46FEF71DFC044650B1FFF716
:102EE000A7FF069B2760C4E9068625626362201D52
:102EF000FEF7A4FB2046BDE8F08100BF70B5144E7C
:102F0000346884B0C4B10529CDE9001202900BDC0D
:102F1000FFF788FE022812D0002330681A4669465F
:102F2000FEF7DAFE04B070BD1A466946002320465B
:102F3000FEF75EFF04B070BD204604B070BD30687F
:102F4000089A00236946FEF7C7FE04B070BD00BFB3
:102F5000808300202DE9F041194E82B04FF0000827
:102F60000CE0DB68DC681F68251D2846FEF78EFB39
:102F7000636A20469847E369012B0AD033681A68D0
:102F8000002AEED10F4A11683160136002B0BDE82B
:102F9000F081A26907EB020C67454FF00003294658
:102FA0003A46204606D23068C4F804C02461FEF7D1
:102FB00055FBE3E7CDF800801946FFF79FFFDDE7FB
:102FC0004C830020508300202DE9F04F7A4E7B4D3A
:102FD0007B4CDFF8F49189B03368D3F80080B8F106
:102FE000000F00F08F80DB68D3F80080FFF796FABF
:102FF000FFF79CFA2A6890428246C0F094804045D0
:10300000286080F0A38000222068A8EB0A01FFF767
:10301000AFF8FFF743FB40B94FF08053C9F80430D5
:1030200040BFBFF34F8FBFF36F8F2068002204A90A
:10303000FEF740FF0028CFD0049B002B5ADB069FF1
:103040007B6913B1381DFEF721FBFFF76FFA2B6880
:10305000984280466ED3049BC5F80080092BE4D8C3
:1030600001A252F823F000BF91300000913000001F
:10307000913000002B300000CD300000ED3000001A
:1030800091300000913000002B300000CD30000066
:10309000059BBA693F6199182CBF0120002041456A
:1030A00079604AD8A8EB03039A4219D87B6A38465C
:1030B0009847FB69012BB8D1BB69059A1A440023D4
:1030C000009338461946FFF719FFAEE7059BBB6131
:1030D00003EB080242457A603F6132D8002BA4D04E
:1030E000384B391D1868FEF7B9FA9EE73846FEF7E7
:1030F00091FB9AE7059BDDE906019847049B002BAD
:1031000093DB9CE7FFF70AFAFFF710FA2A68904270
:10311000824608D32B4BC5F800A01A681268B2FA91
:1031200082F2520970E7FFF715FFC5F800A0FFF71C
:10313000B5FA7AE7FFF70EFF8DE7434501D900287E
:10314000B4D03068391DFEF789FA6EE7FFF7A6FAAA
:103150003268D268D2F80CB00BF104010846039132
:10316000FEF794FADBF81C000399012804D0DBF881
:1031700024305846984758E7DBF81800CBF810B0D1
:1031800008EB00039A45CBF8043003D23068FEF711
:1031900065FAECE7AAEB0803984207D800230093EE
:1031A000424619465846FFF7A9FEE0E7054B186866
:1031B000FEF754FADBE700BF4C8300207C8300203D
:1031C000808300205083002000ED00E038B5154DCD
:1031D000AB78044673B110B14368012098470020D2
:1031E000FEF70EFAEB680133EB600020BDE83840D3
:1031F000FEF70EBA03F0FF00FEF702FA64B12A6987
:1032000042B1944208D0134601E09C4204D01B68AE
:10321000002BFAD122602C61EB68002BE2D100F088
:1032200003F8DFE7888300204FF080430022C3F8D3
:10323000042182B0D3F804210192019802210122D5
:10324000C3F804139A6002B0704700BF10B54FF086
:10325000804382B0D3F8002162B10021164AC3F83E
:103260000011D3F80011507900910121009CC3F89E
:103270000813A8B14FF08043D3F80421CAB100224B
:10328000C3F80421D3F80421019202210A4A0198CB
:10329000C3F808131368012002B0BDE810401847B6
:1032A0001368517198474FF08043D3F80421002AE6
:1032B000E5D102B010BD00BF9C8300202DE9F84F7E
:1032C000164DDFF85C80814600264FF0010A03E0CE
:1032D000FEF79EF9A5431BD0F7B200200AFA07F4C7
:1032E000FEF78EF92C424FF0000006F10106EFD0F8
:1032F000D8F8003014EA030BEAD11C43584689F889
:103300000070C8F80040FEF783F95846BDE8F88F12
:103310004FF0040B5846BDE8F88F00BFFFFF0F00C9
:10332000A483002010B501248440C4F313030BB917
:10333000072010BD074B0020C3F80845FEF760F9D1
:10334000054A1368002023EA04031360FEF760F9BE
:10335000002010BD00F00140A4830020D9B1D2B1FB
:103360000123834010B4C3F3130484B10D4C2468CB
:10337000234212D0C00000F1804303F5F83300204F
:10338000C3F81015C3F814255DF8044B70470720E7
:103390005DF8044B70470E20704708205DF8044B21
:1033A000704700BFA4830020074A012312688340AE
:1033B000134206D000F51173044A002042F823108E
:1033C00070470820704700BFA483002000F0014030
:1033D00001238340C3F313021AB1054A1268134252
:1033E00004D0044A0020C2F8043570470820704712
:1033F000A483002000F0014001238340C3F31302A3
:103400001AB1054A1268134204D0044A0020C2F8D7
:103410000835704708207047A483002000F0014061
:103420002DE9F84FDFF85880814600263F254FF000
:10343000010A03E0FEF7ECF8A5431BD0F7B2002029
:103440000AFA07F4FEF7DCF82C424FF0000006F110
:103450000106EFD098F8003013EA040BEAD12343B9
:10346000584689F8007088F80030FEF7D1F85846C1
:10347000BDE8F88F4FF0040B5846BDE8F88F00BF49
:10348000A883002070B5104D012303FA00F42A78B8
:1034900014F03F0F14BF00260726224202D108264F
:1034A000304670BDC00000F1804000F5F830436048
:1034B0000020FEF7A5F82B78002023EA04032B70E8
:1034C000FEF7A6F8304670BDA8830020012101FA5E
:1034D00000F2034690060AD006480078104204D055
:1034E000054A002042F83310704708207047072033
:1034F000704700BFA883002000F0014038B50123C9
:103500008B409A0619D00E4A12781A4201D108202F
:1035100038BD0C46A40004F1804404F5F834054697
:103520000020FEF76DF8D4F800381D430020C4F8E1
:103530000058FEF76DF8002038BD072038BD00BFE9
:10354000A88300202DE9F04F0024DFF8A4B085B057
:1035500007468A46904600F5A0764FF48035A1468E
:10356000D7F804332B420ED03368E0B25BB1C7F812
:103570004853C7F80853C6F80090336801935BF8C6
:103580002A30019A98470134A0454FEA450506F1D3
:103590000406E5D1D7F80433DA0702D5D7F80031AD
:1035A000C3B9D7F804339B0711D5D7F8043173B1E9
:1035B0000023C7F80431D7F804210D4B0392039A76
:1035C00053F82A30052005B0BDE8F04F184705B084
:1035D000BDE8F08F0023C7F80031054BD7F8002174
:1035E000029253F82A30029A04209847D9E700BF84
:1035F000B483002030B41F4C437944F823201E4C80
:1036000003EB4303E35C93BB90F904308A78002B0F
:1036100026DB03F16043520103F56143D2B283F824
:10362000002390F90430002B09DB144D4FEA531CA2
:10363000012203F01F0302FA03F345F82C3003685C
:103640000A88C3F8082543790879C97803EB43034E
:10365000E21850700120E0549170002030BC704797
:10366000074D03F00F035201D2B2EA54D9E7082004
:1036700030BC7047B4830020AC83002000E100E040
:1036800014ED00E090F90430002B10B40DDB5A0962
:103690000F4C0121203203F01F0301FA03F344F819
:1036A0002230BFF34F8FBFF36F8F036801225A6040
:1036B0000268084BC2F848330168074AC1F808336A
:1036C000437903EB43030021D1545DF8044B704769
:1036D00000E100E003000F00AC8300200368044A0F
:1036E00001211960437903EB43030221D154704750
:1036F000AC8300200368044901225A60437903EB3C
:103700004303CA54704700BFAC830020F0B44FF4A9
:1037100080340568244E8C40C5F848430568C5F8D8
:10372000084390F805C00CEB4C0CB44482B09CF8F4
:10373000015022F07F42F5B1056801F5A87745F800
:1037400027200568D5F80475A7EB020CBA42427928
:1037500002EB4202164488BF0CF1FF1CB27888BF0E
:103760000CF57F4C94451BDB6BB90020C5F8444336
:1037700002B0F0BC7047056801F5A87645F8262030
:103780000568002BF1D05031890089B200236B50BD
:103790006A5803680192019AC3F804430568E4E794
:1037A0000D2002B0F0BC7047AC83002010B4036859
:1037B0000024C3F8044183B0D3F8044103680194A2
:1037C0000222019CC3F8442311B10368C3F8042307
:1037D00003B05DF8044B7047024803220021FFF755
:1037E000B1BE00BF00B00040024804220121FFF733
:1037F000A9BE00BF004002402DE9F041674B684F71
:10380000D3F8042188B012B30021C3F80411D3F80F
:10381000040197F82E2000900098002A3BD1786888
:10382000F968069038898DF81420ADF81C0000293D
:1038300000F0A180388B7960012178833881FA60AB
:1038400019603B6805A89847002387F82F3097F840
:103850002E3023BB514BD3F810216AB10022C3F89C
:103860001021D3F81031039302218DF814103B6816
:1038700003993A7405A89847484BD3F8144164B3A8
:103880000022C3F81421D3F814310593059B3A7430
:1038900008B0BDE8F08197F82F30002B4ED13F4B98
:1038A000D3F80021002AD5D00020C3F8000197F8F2
:1038B0002D107A8BD3F8004101948A42019C8CB27E
:1038C0004BD85BD0354B0022C3F80421D3F8042138
:1038D0000292012202995A60BCE77E69002ED7D07D
:1038E0004FF000480125B6FA86F101F146039B002E
:1038F00003F1804202F5E042A3F58C73D2F800E0B8
:1039000083F0040028FA01F1C0F3800CDB0805A85D
:1039100026EA0106BEF1000F0BD014601268049273
:103920008DF818303A688DF814508DF819C0049B42
:103930009047002ED7D108B0BDE8F081FB687868C9
:103940003A898DF814100690ADF81C209BB13A8B83
:103950007A837B603A81F96073E73889121B92B2EF
:1039600080B27A83801A7A6802EB4002C3F82C2670
:10397000C3F83016A6E700233B7462E7FA6842B149
:103980007883012087F82F00C3F82C26C3F830165F
:1039900098E7012387F82F307A8393E7007000407F
:1039A000BC8300202DE9F04190F804E03B4F0EEB82
:1039B0004E0307EB83059C002B7A82B0002B68D165
:1039C0003A514A686A6042794FEA4E0882B11A4613
:1039D0001E469B00046803F5A07C013244F80C608D
:1039E00054F80C5044790195D3B29C42019DF0D813
:1039F0000268CB7842F30734002C4FEA123241DBE5
:103A000004F160445B0104F56144DBB284F80033E7
:103A1000026842F30733002B4FEA123408DB204DD3
:103A20005B0904F01F040122A24045F8232002682C
:103A3000D2F804554B7825F0030503F003032B431C
:103A4000C2F8043505688B78D5F8082503F0030320
:103A500022F003021343C5F8083500680B78D0F84C
:103A60001025F04422F00F0203F00F0307EB880843
:103A700013430124C0F81035002088F8084002B034
:103A8000BDE8F081074C02F00F025B01DBB2A354EA
:103A9000BEE7082002B0BDE8F08100BFEC83002043
:103AA00000E100E014ED00E0036843F30732002A70
:103AB00010B40EDB190B5209144C01F01F01203217
:103AC00001238B4044F82230BFF34F8FBFF36F8F39
:103AD0000368D3F800220021C3F8001203684FF0F6
:103AE000FF32C3F808230368094A01241C610379E3
:103AF00003EB430302EB83031C72037903EB4303E1
:103B000002EB830211725DF8044B704700E100E0A4
:103B1000EC8300200368054A01211960037903EB57
:103B2000430302EB8303022119727047EC830020E8
:103B30000368054A01211961037903EB430302EB92
:103B400083031972704700BFEC83002003680122D1
:103B5000DA60704770B44FF4803C83B00CFA01F423
:103B60009BB18B00056803F5A0730026EE50EB585F
:103B700001930368019DC3F80443036801F5A8712C
:103B800043F8212003B070BC70470368C3F80843B2
:103B9000F3E700BF2DE9F041114D124FDFF84880E7
:103BA00082B000244FF480362B6806FA04F2013408
:103BB0007BB1D7F8043305F5E0401A424FF000011D
:103BC00080B206D029602B680193D8E90031019AB0
:103BD0009847042C05F10405E6D102B0BDE8F08158
:103BE0004091004000900040EC8300202DE9F0411E
:103BF000114D124FDFF8488082B000244FF4803618
:103C00002B6806FA04F201347BB1D7F8043305F5CA
:103C1000C0401A424FF0000180B206D029602B68E4
:103C20000193D8E90331019A9847042C05F1040562
:103C3000E6D102B0BDE8F08140A1004000A0004004
:103C4000EC8300202DE9F041114D124FDFF8488040
:103C500082B000244FF480362B6806FA04F2013457
:103C60007BB1D7F8043305F5C0401A424FF000018C
:103C700080B206D029602B680193D8E90631019AF9
:103C80009847062C05F10405E6D102B0BDE8F081A5
:103C900040A1014000A00140EC8300202DE9F0414B
:103CA000114D124FDFF8488082B000244FF4803667
:103CB0002B6806FA04F201347BB1D7F8043305F51A
:103CC000A0401A424FF0000180B206D029602B6854
:103CD0000193D8E90931019A9847062C05F10405AA
:103CE000E6D102B0BDE8F08140B1014000B0014032
:103CF000EC83002010B5084CD4F8003182B04BB1F1
:103D0000064B1B6898470023C4F80031D4F80031F3
:103D10000193019B02B010BD0000014020840020EF
:103D200070B5114B114A1D781160DDB9104E027843
:103D300001211970C6F80C25416804464FF47A72C7
:103D40000023C803490C04F0D7FDC6F80405237A04
:103D5000084A5B01DBB282F810334FF48033136002
:103D6000284670BD082070BD1D84002020840020DE
:103D70000000014000E100E0044B0549012202205F
:103D8000C3F804231A600870704700BF00000140A8
:103D90001D84002010B504460020FDF731FC0E4ABA
:103DA0001378072B11D80D492370581C1070D1F8C7
:103DB0000805012202FA03F30343C1F80835002481
:103DC0000020FDF725FC204610BD04240020FDF74F
:103DD0001FFC204610BD00BF1C84002000000140D5
:103DE000034B044A00F5C07043F82020704700BF21
:103DF000000001403546526E10B44FF08053D3F8A6
:103E00003021082A23D08A4AD2F8883043F470033C
:103E1000C2F88830BFF34F8FBFF36F8F4FF08053DE
:103E2000D3F83021082A00F0B5804FF01023D3F8E2
:103E30000022002AC0F2CB80D3F80432002BC0F25B
:103E4000C6807C4B7C4A1A605DF8044B70474FF08B
:103E500080410020C1F80C01784AC1F81001C1F876
:103E60003805D3F80414C2F82015D3F80814C2F8A2
:103E70002415D3F80C14C2F82815D3F81014C2F87E
:103E80002C15D3F81414C2F83015D3F81814C2F84E
:103E90003415D3F81C14C2F84015D3F82014C2F816
:103EA0004415D3F82414C2F84815D3F82814C2F8DE
:103EB0004C15D3F82C14C2F85015D3F83014C2F8AE
:103EC0005415D3F83414C2F86015D3F83814C2F876
:103ED0006415D3F83C14C2F86815D3F84014C2F83E
:103EE0006C15D3F83411D3F84434C2F87035052971
:103EF00044D8534B5B5C1BB1524B534AC3F88C26DE
:103F0000524B5B5C002B58D04FF080535049D3F894
:103F10003021FB20C1F81805082AD3F834317FF48A
:103F200072AF052B2AD84B4AD35C002B4AD04FF0F6
:103F300080524FF08040D2F85832D0F8E41ED2F8C8
:103F4000304103F00F0321F00F010B43C0F8E43EB2
:103F5000082CD2F834317FF456AF052B0ED83E4AE8
:103F6000D35C5BB14FF080533C4AD3F830314FF40F
:103F70000071082BC2F840167FF445AF4FF0804324
:103F8000D3F80024D2077FF53EAF6FF00102C3F8EB
:103F9000002438E7D3F83431052B08D94FF010222C
:103FA0004FF08043D2F80822C3F858253DE72C4A49
:103FB000D35C002B3FF439AFF0E74FF08053D3F8D8
:103FC0003431B0E74FF08053D3F83431C7E7254A96
:103FD0000123C2F80435D2F80034002BFBD04FF097
:103FE000102312211F4AC3F80012D2F80034002B0C
:103FF000FBD04FF0102312211A4AC3F80412D2F852
:104000000034002BFBD000231649C2F80435D1F848
:104010000034002BFBD0BFF34F8F0549124BCA6809
:1040200002F4E0621343CB60BFF34F8F00BFFDE7A4
:1040300000ED00E0000000200090D00300C0004030
:10404000388C00000050004048810300388C00008C
:1040500000F00040388C0000388C000000900240D6
:10406000308C000000E001400400FA0580B582B009
:1040700000F094FA1D4CDFF88490DFF884801C4F28
:104080001C4E1FE0012000F049FF4FF42050FEF7C6
:1040900091FB01221146002000F0EEFA012000F011
:1040A000E7FE6578144875233A4631461DB1CDF8D0
:1040B000008000F019FE012000F030FF4FF4205086
:1040C000FEF778FB01221146072000F0D5FA012007
:1040D00000F0CEFE6378002BD4D00748CDF80090D6
:1040E00066233A46314600F0FFFDCBE7080000208A
:1040F0000C8D0000408C0000488C0000508C0000AB
:104100007C8C000000B5322183B05A2000F05CF8AE
:10411000234C244D002000F0ABFE012300206370EF
:1041200000F074FF4FF0A04303214FF00042C3F8AA
:104130007C17C3F80C256378B3B9637823BB637825
:10414000D3B9194C19490120CDE90004002380227C
:104150001748FEF77BF8002000F0E0FEFEF7AEF90E
:104160000F20FDF725FAFBE7124A13491348009583
:10417000B22300F0B9FDE0E70E4A0F490F48009561
:10418000B42300F0B1FDDCE70D490E4B094A0B48A2
:10419000CDE900310849B32300F0A6FDCFE700BF09
:1041A00008000020948C000024840020048D00006E
:1041B0006D400000148D0000408C0000488C000011
:1041C000C88C0000D48C0000F0B55349DFF880C1E2
:1041D000524F534E4FF0804301220224C1F8844CC9
:1041E0004FF01025C3F87825D3F8183486460023FD
:1041F0004C48C5F80C32A1F5A421C5F800C24FF017
:10420000FF3CC5F804C2C7F8FC3FC6F80035C260E1
:104210004260C0F80035C0F8FC3FD0F8FC5FC0F841
:10422000FC2FCA604A60C1F80035C1F8FC3FD1F8E4
:10423000FC0FC1F8FC2F3C493C4A3D48C1F8003511
:1042400085B0C2F800354FF0A0455A1C1F2BA3F1D2
:104250000C0C20FA03F102F5E0730AD0012A06D013
:10426000BCF1120F01D8C90701D445F82340134609
:10427000EBE7304801210023022401E00133013142
:1042800003F01F020B2B02F5E072F7D0202940F853
:104290002240F3D14FF0A04203234FF08051C2F8E7
:1042A0007037C2F80C154FF40061C0F82C37224C5F
:1042B000C0F80C1521492248224A9FED237A012398
:1042C00063604B6001F5883143604B6001F58051BC
:1042D00001AC4B604FF47A7303FB0EF307EE903A98
:1042E000F8EE677A07CA67EE877A84E80700FCEE83
:1042F000E77A00212046CDED027AFFF711FD08B1E3
:1043000005B0F0BD1148FFF745FD0028F8D1FFF7D3
:1043100033FD05B0F0BD00BF00A007400010004015
:10432000007000400020004000A0025000F001405A
:1043300000900048000300500080004000900040C2
:1043400000A000402C8D00006F12833F28840020C5
:104350001200008008B5FEF7E9F8034B1878BDE8B5
:104360000840FFF73DBD00BF2884002000B5094884
:1043700083B000231A46006800930321FEF7BEFDB8
:10438000054A0023106819461A4603B05DF804EB8D
:10439000FDF7A2BC34840020308400202DE9F041D8
:1043A0002D4E82B007460D46904600242846FEF763
:1043B00001FA337813F0010F04F101044FF000000B
:1043C00001D0FBF7BFFF2846FEF7F4F93378DB078F
:1043D0004FF0000001D5FBF7BBFFBC42E6D11F4BFD
:1043E0001B783BB91E4A13701E4B1B782BBB02B0C7
:1043F000BDE8F08100241C4D009423464246042170
:104400002868FEF77BFD2D68FEF790F800940246C1
:10441000234601212846FEF771FD0128E4D0134B05
:10442000DB78002BE0D0124B0093124A124913485C
:104430004FF48F7300F058FCD6E70B4A0023106846
:1044400000931A460321FEF759FD4FF4FA7002B0AB
:10445000BDE8F041FEF7AEB92C8400202B8400208B
:10446000298400202A8400203484002008000020B1
:10447000548D0000EC8D0000448D00004C8D000038
:104480002DE980483C4C3D4E3D4D3E4FDFF8FCB0A1
:10449000DFF8FCA0DFF8FC90DFF8FC8083B0206838
:1044A0004FF0FF31FDF7A0FD0028F8D02B78002257
:1044B00032700A2B52D8DFE803F04A433C352F29EB
:1044C000221B140D06004FF440628A210520FFF7DD
:1044D00065FFE4E74FF440628A210420FFF75EFFA6
:1044E000DDE74FF440628A210320FFF757FFD6E74C
:1044F0004FF440628A210220FFF750FFCFE74FF4CC
:1045000040628A210120FFF749FFC8E74C2211468B
:104510000120FFF743FFC2E7CC2211460120FFF73D
:104520003DFFBCE74FF4806211460120FFF736FFE4
:10453000B5E74FF4705266210120FFF72FFFAEE779
:104540003B78DB07ABD50020FBF7FCFEA7E73B7809
:10455000DA07A4D50020FBF7FBFEA0E79BF80330A9
:10456000002B9CD0084B009352468223494640467C
:1045700000F0BAFB93E700BF308400202A840020BB
:10458000298400202C8400206C8D0000080000206D
:10459000F88D0000448D00004C8D000010B5012006
:1045A00082B0FBF7DBFE032200210120FDF75AFB5E
:1045B000234B186058B30023224A009219461A462A
:1045C0002148FEF781FC214B0446186088B1204A3F
:1045D000204921480323CDE9003200236422FDF75E
:1045E00035FE012803D01D4BDB7803BB002002B051
:1045F00010BD1A4BDB78002BF8D0194B19480093EB
:10460000194A1A499D2300F06FFB2046EFE7134B30
:10461000DB78002BEAD0164B00930446124A13496C
:104620001048972300F060FB204602B010BD114BEC
:1046300000930D4A0D490B48A32300F055FBD5E725
:10464000308400206D430000A48D000034840020DD
:1046500038840020CC8D0000814400000800002038
:10466000B08D00004C8D0000088E0000448D0000CD
:10467000848D0000D08D000070B50F4C82B00023F7
:1046800006460D4620680093144603211A46FEF79D
:1046900035FC0A4A0A4916700A4A086815700A4A1F
:1046A00001211170094A0023147019461A4602B0FC
:1046B000BDE87040FDF710BB348400202984002041
:1046C000308400202B8400202A8400202C840020A9
:1046D00030B5264C94F86A3083B0002B43D14FF6A6
:1046E000FF704FF0FF0C5A09012A03F01F0114BF9D
:1046F0004FF0FF320246CA40D20748BFE21803F12A
:10470000010348BF82F830C0302BECD14FF0FF31AD
:104710002160164C01232246072B88BFE01803F1C5
:10472000010342F8041F88BF80F858100C2BF3D106
:10473000062200210E4801F0DBFA0E4BC02283F85E
:10474000062340221A600C4B0020C3F87C01D3F8EA
:104750007C2101924FF000410122019DC3F8041316
:1047600084F86A2000E0082003B030BD3C840020BB
:10477000A084002000E100E00060004030B43C4D27
:104780002B1893F93020013202D0082030BC70473A
:104790008A785AB12A1F002352F8044F013431D0CD
:1047A0000133082BF8D1042030BC7047FE2283F877
:1047B00030204B78012B4DD01F2887BF2D4A00F0A9
:1047C0001F0101464FF0A04201238B40C2F80C3577
:1047D0001F288BBF00F01F03034626494FF0A0415E
:1047E00003F5E073032241F8232020FA02F2224964
:1047F00000F007008C5C0123834023438B5400208E
:1048000030BC70472A1882F83030002245F8232047
:104810000A784C789B001204240504F4801403F1F8
:10482000804302F4403203F5C0432243040204F4FF
:104830007C542243D3F8104524F4991424F4F854FA
:10484000C3F81045D3F810452243C3F810254B7820
:10485000012BB1D11F2887BF064A00F01F01014676
:104860004FF0A04201238B40C2F80835B0E700BFEB
:104870003C84002000030050A084002030B41A4B78
:104880001A1892F93020D1B2072909D84FF0FF3415
:1048900043F8214002F5A2721449002441F8224055
:1048A00003444FF0FF0C124983F830C0C20800F0F7
:1048B000070C012303FA0CF311F802C01CEA030FE2
:1048C00010D01F2888BF00F01F0000F5E0708CBFDB
:1048D000084C4FF0A044022544F82050885C20EAA0
:1048E00003038B5430BC70473C84002000600040C0
:1048F000A084002000030050074B184490F930308A
:104900009B0003F1804303F5C043D3F8102542F028
:104910000302C3F8102570473C840020054B18445F
:1049200090F930000C308000C0B200F1804000F5FA
:10493000C04070473C840020054B184490F930007B
:1049400018308000C0B200F1804000F5C0407047D0
:104950003C8400202DE9F04F0022164685B0CDE9B9
:104960000222644B644C65480122354604E004335E
:1049700083424FEA420211D019680129F7D1D4F8D5
:1049800004131142F3D01D6019680091043383426F
:1049900046EA020600994FEA4202EDD1564BD3F89F
:1049A0007C21012A06D0F3B2E3B9002E37DB05B033
:1049B000BDE8F08F0022C3F87C21D3F87C2101925E
:1049C0004FF0A043019AD3F820154D4A0291C3F845
:1049D0002015D2F820150391F3B2C2F82015F3B1D7
:1049E00046F00046474F01250024A30003F1804311
:1049F0002E4203F5C0434FEA45050BD0D3F810050E
:104A000057F82420D3F81015C0F30520C1F3014155
:104A100002B190470134082CE7D1002EC7DA3A4E94
:104A2000DFF8DC80A6F16307384C012514F9010F8B
:104A3000431C44D0C0F3C20202F110030DEB030289
:104A400000F0070312F8082C05FA03F31A42C1B26A
:104A500000F03F0033D01F2887BF01F01F0CC24673
:104A600084464FF0A04A0AEB8C0305FA0CFCD3F8FD
:104A70000027C2F3014ED3F8002722F44032C3F8D6
:104A800000273A18D3F8009792F93020BEF1020FB0
:104A90000CBF4FF4403B4FF4003B57F8222049EA4B
:104AA0000B09C3F80097CAF820C542B18909032948
:104AB0001AD0BEF1020F15D0BEF1030F16D0A642D8
:104AC000B4D14FF0A042D2F820350293C2F820357D
:104AD000D8F8202503921343C8F82025A4D105B0A7
:104AE000BDE8F08F0129EAD19047E8E70229E6D135
:104AF0009047E4E700610040006000402061004012
:104B0000000300503C8400209F8400209B840020F0
:104B100070B50C7882B04CB1012C05D1FEF782F84B
:104B200001282CD1234B187002B070BD0D46FEF742
:104B300079F80128AA681BD00194CAB11E4E696891
:104B40003068214401AA0023FDF752F9AA68013414
:104B5000A242F4D801280BD1019B4BB1174B4FF067
:104B600080525A6040BFBFF34F8FBFF36F8FAA6868
:104B70006968134802B0BDE87040FBF7F7BE114A00
:104B800000231068019301A9FDF764F90E4A137818
:104B9000012803F1FF331370C6D1019B002BC3D052
:104BA000064B4FF080525A6040BFBFF34F8FBFF3A8
:104BB0006F8FB9E7040000204C9C002000ED00E05E
:104BC000688E00005C9C0020459C002000B5084DCC
:104BD000084CADF2044D694628684FF0FF32FDF7EE
:104BE00069F923686946D86800F0CEFFF3E700BF93
:104BF000589C00206C0000202DE9F0412E4B2F4DD9
:104C0000DFF8E0802E4E2F4F012482B02146002293
:104C10004FF480701C70FDF725F82B4B00221860B4
:104C20004FF480610A20FDF71DF8284B032218601D
:104C300000212046FDF716F80322286000212046B7
:104C4000FDF710F80322C8F8000000212046FDF708
:104C500009F80322306000212046FDF703F8002305
:104C600038601A4619462868FDF736F800231A46B8
:104C70001946D8F80000FDF72FF800231A46194608
:104C80003068FDF729F800231A4619463868FDF701
:104C900023F8326829680E4B0E48FCF723FC0E4BB4
:104CA0000E490F48CDE900434FF490620023FDF711
:104CB000CDFA02B0BDE8F081408800205C9C002065
:104CC000549C0020609C00204C9C0020589C00209C
:104CD00004000020688E0000489C0020148E000014
:104CE000CD4B0000509C00202DE9F043514E83B085
:104CF000044689463068012117469846FDF774F945
:104D0000012806D04C4B1B78002B50D103B0BDE8D6
:104D1000F0834A494A4D0A78531CDBB2052B05EB58
:104D2000822508BF00230B702846214600F05CFF57
:104D30004946044615FA80F000F056FF414BA4B2F4
:104D40001A780444A4B2002A47D01A78012A5ED007
:104D50001B78022B64D00BAA0A990192281900F043
:104D6000BDFF0444A4B23849281900F03DFF204497
:104D7000364915FA80F000F037FFFDF753FF2E4B50
:104D800001281B783AD0002B30D0314A002310681C
:104D900029460A22FCF7A0FF012813D0002330681F
:104DA0001A461946FCF798FF03B0BDE8F083294A7C
:104DB000254B10682849294AC06800F0E5FE03B079
:104DC000BDE8F083264C3068217800230131217042
:104DD0001A461946FCF780FF98E7281921494346EF
:104DE0003A4600F001FF204484B2B4E730681A4626
:104DF0001946FCF771FF03B0BDE8F083002BCDD05E
:104E0000144B1B682946D86800F0BEFEC6E7281977
:104E1000154943463A4600F0E7FE204484B29AE73B
:104E20002819124943463A4600F0DEFE204484B277
:104E300091E700BF609C0020469C0020449C00201D
:104E40004488002008000020488C0000648E000088
:104E5000589C00206C0000201C8E00004C8D00002F
:104E6000459C0020608E0000488E0000548E00009B
:104E7000F0B5234B1B7889B006460BB9FFF7BCFE93
:104E8000204D4FF4C0612868FDF7AEF8002832D0FD
:104E90001D4F3B7863B100241C4B286801229A55B2
:104EA00000231A461946FCF717FF204609B0F0BD4B
:104EB0000D240793CDE9023305930194144B154A51
:104EC0004CF25034102104944FF0EB7418460091CA
:104ED0000694694605248DF81D40FBF78FFB0446B8
:104EE0000B48FBF7FFFC0C4B186808B1FDF79AFA6A
:104EF00001233B70D0E70324204609B0F0BD00BF7A
:104F000040880020509C0020469C0020A88400205F
:104F1000688E0000114B0000489C00202DE9F041F4
:104F2000274E04464FF4C0613068FDF75DF8A0B12C
:104F3000244A002111551346511D13F8012B22B9A3
:104F40008B42FAD1204B197849B9002330681A46B0
:104F5000BDE8F0411946FCF7BFBEBDE8F081DFF8BF
:104F600078801A7098F80030CBB1184F0A2547F0B6
:104F7000010709E06620FDF71DFC98F8003073B1C9
:104F80006B1E13F0FF050AD0FDF74CFE0128F1D18E
:104F900066244FF47A40B847013CFAD1EDE70C4B58
:104FA000186808B1FDF7EEFC0A48FBF767FC4FF004
:104FB000A0430222C3F83427C3F84027C5E700BF47
:104FC000509C0020A8840020469C0020B08E000049
:104FD000489C0020688E0000459C0020052800D0D9
:104FE0007047084B084A1968002382B0C1F80530A1
:104FF000D1F805101368019101990133136002B0D3
:10500000704700BF0C000020689C00202DE9F04193
:10501000444E737884B00446002B3FD1DFF85081B2
:1050200098F80010C1B1404D404F28684FF0FF3153
:10503000FCF7DAFF39683E4AD1F8046514603D494F
:105040003D4A2868166000230B601A46194604B0D2
:10505000BDE8F041FCF740BE03220120FCF702FE50
:10506000314D2860002836D04FF08043D3F81834F3
:105070007378002B4DD1314B2C4F314A93E803000C
:105080000290ADF80C10384602A9FEF7B3FA78B1D9
:10509000F378002B34D104B0BDE8F081294B2A4AC3
:1050A0002A49CDE900302A488623FFF71DFEB5E7DF
:1050B00001213846FEF77AFB3846FEF70FFB73787E
:1050C000ABB900231A4619462868FCF705FE0123F0
:1050D00088F80030A9E7F378002BDCD01D4B009353
:1050E000194A1D491D488C23FFF7FEFDD3E71C4BD1
:1050F0000093154A154916489A23FFF7F5FDE0E796
:10510000184B0093184A144914487823FFF7ECFD14
:10511000C1E7164B00930C4A0C490D489423FFF746
:10512000E3FDA8E708000020709C00200C00002090
:10513000649C0020689C00206C9C0020348F000040
:10514000DD4F0000B88E0000488F0000408C00004A
:10515000488C0000D48E0000448D00004C8D00006F
:10516000248F0000088F00003C8F0000F48E0000A8
:10517000749C002008B5064B044613B10021AFF320
:105180000080044B1B6803B19847204602F01EFFC5
:1051900000000000B09D00202DE9FF4755EC104BAA
:1051A000002D0E4619462B46BBBF05F100431D4698
:1051B00000232D230B700D9BDDF830A0914623F0CA
:1051C0002008BCBF22461446B8F1460F05D0B8F1FE
:1051D000450F00D10136022100E0032103AB01930A
:1051E00002AB009345EC104B5346324600F0E8FE0C
:1051F000B8F1470F074602D119F0010F22D0B8F1DC
:10520000460F07EB060910D13B78302B0AD100225C
:1052100000232046294603F0FFFA18B9C6F101061B
:10522000CAF80060DAF800309944002200232046D2
:10523000294603F0F1FA08B1CDF80C903022039B17
:105240004B4507D3039B0E9ADB1B3846136004B013
:10525000BDE8F087591C03911A70F0E7F7B50346D3
:105260000029B8BF494203F8022BB4BF2D222B22DC
:10527000092942702ADD0DF1070217460A269446D5
:1052800091FBF6F506FB151430340CF8014C0C4676
:10529000632C02F1FF322946F1DC3031ACF102041B
:1052A00002F8011C411C2246BA420AD30DF1090240
:1052B000A2EB0C02BC4288BF00221344181A03B0B0
:1052C000F0BD12F8015B01F8015FEDE730233031EA
:1052D0008370C170031DF1E72DE9F04F2DED028BB6
:1052E0008DB00C46DDF8608016461F46054600F07E
:1052F00007FDD0F800A0504600F0D0FD00230A932F
:1053000023680593D8F8003094F818B0073323F0D9
:10531000070303F10802C8F80020D3E9008929F047
:1053200000430793CDF8188008EE100AC4E91289EB
:10533000DDE906019E4B4FF0FF3203F09FFA88BB78
:10534000DDE906019A4B4FF0FF3203F079FA48BBD2
:10535000002200234046494603F068FA10B12D238D
:1053600084F84330934A944BBBF1470F94BF904667
:10537000984603232361059B23F0040323604FF029
:105380000009009733460BAA2146284600F0DAF9B7
:10539000013040F090804FF0FF300DB0BDEC028B3B
:1053A000BDE8F08F42464B464046494603F066FA58
:1053B00040B14B46002BBCBF2D2384F843307F4ABD
:1053C0007F4BD1E763680BF0DF0206925A1C3FD196
:1053D00006236360059B616843F4806200230393A6
:1053E0000AABCDE901B309AB49EC108B0093226005
:1053F0000DF123032846FFF7CFFE069B0999472BA3
:10540000804608D1C81C02DB6368994241DDABF1DC
:1054100002035FFA83FBBBF1650F20D801395A46BE
:1054200004F150000991FFF719FF0A9A1318012A95
:105430008146236102DC2268D20701D50133236152
:105440009DF82330002B9CD02D2384F8433098E71F
:10545000069A472ABED1002BBCD10123B9E7BBF184
:10546000660F18D1002963680BDD216113B922682A
:10547000D00702D501330B442361A1654FF0000929
:10548000DEE713B92268D20701D50233F4E701231E
:10549000F2E74FF0670B0A9B994205DB2368216115
:1054A000D807EAD54B1CE7E70029D4BFC1F10202B7
:1054B00001221344E0E723685A0507D423694246D2
:1054C00031462846B84701302CD164E7BBF1650F5F
:1054D00040F2E080D4E912010022002303F09CF99D
:1054E000002834D0374A012331462846B8470130D6
:1054F0003FF451AFDDE909239A4202DB2368D80764
:1055000010D518EE103A524631462846B8470130B9
:105510003FF441AF4FF0000804F11A090A9B013B28
:10552000434509DC23689B0700F10781E0680B9B7A
:105530009842B8BF184630E701234A46314628460C
:10554000B84701303FF427AF08F10108E6E7099BAF
:10555000002B39DC1B4A012331462846B84701306D
:105560003FF419AFDDE90932134302D12368D907AB
:10557000D8D518EE103A524631462846B847013081
:105580003FF409AF4FF0000904F11A0A099B5B428E
:105590004B4501DC0A9B92E70123524631462846DF
:1055A000B84701303FF4F7AE09F10109EEE700BF5B
:1055B000FFFFEF7F518F0000558F0000598F0000D3
:1055C0005D8F0000618F00000A9AA36D9A42A8BF08
:1055D0001A46002A914637DC4FF0000B29EAE97998
:1055E00004F11A02A36D0593A3EB09035B4533DCB9
:1055F000DDE909239A423BDB2368DA0738D4DDE989
:105600000932A2EB0309059BD21A9145A8BF914626
:10561000B9F1000F35DC4FF0000829EAE97904F10F
:105620001A0ADDE909239B1AA3EB090343457FF717
:1056300079AF0123524631462846B84701303FF43E
:10564000AAAE08F10108ECE7134631464246284667
:10565000B8470130C0D19EE6012331462846059265
:10566000B84701303FF497AE059A0BF1010BB9E74B
:1056700018EE103A524631462846B8470130BED19E
:1056800089E6059A4B46424431462846B8470130E0
:10569000C1D180E60A9A012A01DCDB073AD5012351
:1056A000424631462846B84701303FF474AE18EE02
:1056B000103A524631462846B84701303FF46BAEA7
:1056C000D4E9120100220023DDF828A003F0A4F899
:1056D000D8B90AF1FF3308F1010231462846B8472C
:1056E00001300ED157E60123524631462846B847CD
:1056F00001303FF450AE08F101080A9B013B4345DD
:10570000F1DC4B4604F15002DAE64FF0000804F1F8
:105710001A0AF2E701234246DFE701234A463146EF
:105720002846B84701303FF436AE08F10108E36877
:105730000B995B1A4345F0DCF8E64FF0000804F1E2
:105740001909F4E72DE9F047164699468A680B696E
:10575000DDF820809342B8BF1346336091F84320B0
:1057600007460C460AB1013333602368990642BFED
:10577000336802333360256815F0060506D104F15D
:10578000190AE36832689B1AAB4226DC94F843207E
:10579000131E226818BF012392062BD404F1430282
:1057A00049463846C04701301ED02368226903F0BD
:1057B0000603042B02BFE5683368ED1AA3680CBF2B
:1057C00025EAE57500259342C4BF9B1AED18002613
:1057D0001A34B5421AD1002008E001235246494646
:1057E0003846C047013003D14FF0FF30BDE8F087A5
:1057F0000135C6E7E1185A1C302081F843002244E5
:1058000094F8451082F843100233C7E7012322467B
:1058100049463846C0470130E6D00136D9E7000096
:105820002DE9FF470F7E0C9D782F914680460C4650
:105830009A4601F1430207D8622F0AD8002F00F0E0
:10584000D480582F00F0C08004F1420584F84270E3
:105850003AE0A7F16303152BF6D801A151F823F024
:10586000B9580000CD5800004958000049580000C0
:105870004958000049580000CD5800004958000020
:10588000495800004958000049580000D15900000B
:10589000F95800008B590000495800004958000091
:1058A000F359000049580000F95800004958000019
:1058B00049580000935900002B681A1D1B682A6084
:1058C00004F1420584F8423001239FE020682B68F0
:1058D000070603F10401296001D51E6803E04606AE
:1058E000FBD5B3F90060002E03DA2D23764284F84D
:1058F00043305A480A2312E02B682068191D29609A
:10590000050601D51E6802E04106FBD51E885348F6
:105910006F2F0CBF08230A23002184F84310656809
:10592000A560002DA2BF216821F0040121600EB9FD
:10593000002D4BD01546B6FBF3F103FB1167C75D95
:1059400005F8017D3746BB420E46F4D9082B0BD132
:105950002368DE0708D5236961689942DEBF3023DA
:1059600005F8013C05F1FF35521B2261CDF800A07E
:105970004B4603AA21464046FFF7E4FE01304AD1D8
:105980004FF0FF3004B0BDE8F087236843F02003F8
:1059900023603348782784F84570236829681F06F8
:1059A00051F8046B02D45F0648BFB6B2DF0748BFA8
:1059B00043F02003296048BF23601EB9236823F009
:1059C000200323601023A7E72448E4E71546BDE73A
:1059D0002B6826686169181D286035061B6801D58B
:1059E000196002E07006FBD519800023236115467B
:1059F000BCE72B681A1D2A601D68626800212846D2
:105A000000F0EEF908B1401B606063682361002379
:105A100084F84330AAE723692A4649464046D047DE
:105A20000130ADD023689B0713D4E068039B9842F4
:105A3000B8BF1846A6E70123324649464046D0473C
:105A400001309DD00135E36803995B1AAB42F2DC6B
:105A5000EBE7002504F11906F5E700BF638F0000AE
:105A6000748F0000002310B50446C0E90033C0E97C
:105A70000433836081814366C281836119460822B1
:105A80005C3000F035F9054B6362054BA362054BB2
:105A9000E362054B2462236310BD00BF295C000054
:105AA0004B5C0000835C0000A75C0000024A0349D5
:105AB000034800F07BB800BF14000020CD7A00003E
:105AC0002000002041680C4B994210B5044601D0DB
:105AD00001F0FCFFA168094B994202D0204601F079
